{
  "contractName": "SandPool",
  "abi": [
    {
      "inputs": [
        {
          "internalType": "string",
          "name": "_name",
          "type": "string"
        },
        {
          "internalType": "string",
          "name": "_symbol",
          "type": "string"
        },
        {
          "internalType": "uint256",
          "name": "_marketFee",
          "type": "uint256"
        }
      ],
      "stateMutability": "nonpayable",
      "type": "constructor"
    },
    {
      "anonymous": false,
      "inputs": [
        {
          "indexed": true,
          "internalType": "address",
          "name": "owner",
          "type": "address"
        },
        {
          "indexed": true,
          "internalType": "address",
          "name": "approved",
          "type": "address"
        },
        {
          "indexed": true,
          "internalType": "uint256",
          "name": "tokenId",
          "type": "uint256"
        }
      ],
      "name": "Approval",
      "type": "event"
    },
    {
      "anonymous": false,
      "inputs": [
        {
          "indexed": true,
          "internalType": "address",
          "name": "owner",
          "type": "address"
        },
        {
          "indexed": true,
          "internalType": "address",
          "name": "operator",
          "type": "address"
        },
        {
          "indexed": false,
          "internalType": "bool",
          "name": "approved",
          "type": "bool"
        }
      ],
      "name": "ApprovalForAll",
      "type": "event"
    },
    {
      "anonymous": false,
      "inputs": [
        {
          "indexed": true,
          "internalType": "address",
          "name": "previousOwner",
          "type": "address"
        },
        {
          "indexed": true,
          "internalType": "address",
          "name": "newOwner",
          "type": "address"
        }
      ],
      "name": "OwnershipTransferred",
      "type": "event"
    },
    {
      "anonymous": false,
      "inputs": [
        {
          "indexed": false,
          "internalType": "uint256",
          "name": "tokenId",
          "type": "uint256"
        },
        {
          "indexed": true,
          "internalType": "address",
          "name": "owner",
          "type": "address"
        },
        {
          "indexed": false,
          "internalType": "uint256",
          "name": "cost",
          "type": "uint256"
        },
        {
          "indexed": false,
          "internalType": "string",
          "name": "metadataURI",
          "type": "string"
        },
        {
          "indexed": false,
          "internalType": "uint256",
          "name": "timestamp",
          "type": "uint256"
        }
      ],
      "name": "Sale",
      "type": "event"
    },
    {
      "anonymous": false,
      "inputs": [
        {
          "indexed": true,
          "internalType": "address",
          "name": "from",
          "type": "address"
        },
        {
          "indexed": true,
          "internalType": "address",
          "name": "to",
          "type": "address"
        },
        {
          "indexed": true,
          "internalType": "uint256",
          "name": "tokenId",
          "type": "uint256"
        }
      ],
      "name": "Transfer",
      "type": "event"
    },
    {
      "inputs": [
        {
          "internalType": "address",
          "name": "to",
          "type": "address"
        },
        {
          "internalType": "uint256",
          "name": "tokenId",
          "type": "uint256"
        }
      ],
      "name": "approve",
      "outputs": [],
      "stateMutability": "nonpayable",
      "type": "function"
    },
    {
      "inputs": [
        {
          "internalType": "address",
          "name": "owner",
          "type": "address"
        }
      ],
      "name": "balanceOf",
      "outputs": [
        {
          "internalType": "uint256",
          "name": "",
          "type": "uint256"
        }
      ],
      "stateMutability": "view",
      "type": "function",
      "constant": true
    },
    {
      "inputs": [
        {
          "internalType": "uint256",
          "name": "tokenId",
          "type": "uint256"
        }
      ],
      "name": "getApproved",
      "outputs": [
        {
          "internalType": "address",
          "name": "",
          "type": "address"
        }
      ],
      "stateMutability": "view",
      "type": "function",
      "constant": true
    },
    {
      "inputs": [
        {
          "internalType": "uint256",
          "name": "",
          "type": "uint256"
        }
      ],
      "name": "holderOf",
      "outputs": [
        {
          "internalType": "address",
          "name": "",
          "type": "address"
        }
      ],
      "stateMutability": "view",
      "type": "function",
      "constant": true
    },
    {
      "inputs": [
        {
          "internalType": "address",
          "name": "owner",
          "type": "address"
        },
        {
          "internalType": "address",
          "name": "operator",
          "type": "address"
        }
      ],
      "name": "isApprovedForAll",
      "outputs": [
        {
          "internalType": "bool",
          "name": "",
          "type": "bool"
        }
      ],
      "stateMutability": "view",
      "type": "function",
      "constant": true
    },
    {
      "inputs": [],
      "name": "marketFee",
      "outputs": [
        {
          "internalType": "uint256",
          "name": "",
          "type": "uint256"
        }
      ],
      "stateMutability": "view",
      "type": "function",
      "constant": true
    },
    {
      "inputs": [],
      "name": "marketOwner",
      "outputs": [
        {
          "internalType": "address",
          "name": "",
          "type": "address"
        }
      ],
      "stateMutability": "view",
      "type": "function",
      "constant": true
    },
    {
      "inputs": [],
      "name": "name",
      "outputs": [
        {
          "internalType": "string",
          "name": "",
          "type": "string"
        }
      ],
      "stateMutability": "view",
      "type": "function",
      "constant": true
    },
    {
      "inputs": [],
      "name": "owner",
      "outputs": [
        {
          "internalType": "address",
          "name": "",
          "type": "address"
        }
      ],
      "stateMutability": "view",
      "type": "function",
      "constant": true
    },
    {
      "inputs": [
        {
          "internalType": "uint256",
          "name": "tokenId",
          "type": "uint256"
        }
      ],
      "name": "ownerOf",
      "outputs": [
        {
          "internalType": "address",
          "name": "",
          "type": "address"
        }
      ],
      "stateMutability": "view",
      "type": "function",
      "constant": true
    },
    {
      "inputs": [],
      "name": "renounceOwnership",
      "outputs": [],
      "stateMutability": "nonpayable",
      "type": "function"
    },
    {
      "inputs": [
        {
          "internalType": "address",
          "name": "from",
          "type": "address"
        },
        {
          "internalType": "address",
          "name": "to",
          "type": "address"
        },
        {
          "internalType": "uint256",
          "name": "tokenId",
          "type": "uint256"
        }
      ],
      "name": "safeTransferFrom",
      "outputs": [],
      "stateMutability": "payable",
      "type": "function",
      "payable": true
    },
    {
      "inputs": [
        {
          "internalType": "address",
          "name": "from",
          "type": "address"
        },
        {
          "internalType": "address",
          "name": "to",
          "type": "address"
        },
        {
          "internalType": "uint256",
          "name": "tokenId",
          "type": "uint256"
        },
        {
          "internalType": "bytes",
          "name": "_data",
          "type": "bytes"
        }
      ],
      "name": "safeTransferFrom",
      "outputs": [],
      "stateMutability": "payable",
      "type": "function",
      "payable": true
    },
    {
      "inputs": [
        {
          "internalType": "address",
          "name": "operator",
          "type": "address"
        },
        {
          "internalType": "bool",
          "name": "approved",
          "type": "bool"
        }
      ],
      "name": "setApprovalForAll",
      "outputs": [],
      "stateMutability": "nonpayable",
      "type": "function"
    },
    {
      "inputs": [],
      "name": "supply",
      "outputs": [
        {
          "internalType": "uint256",
          "name": "",
          "type": "uint256"
        }
      ],
      "stateMutability": "view",
      "type": "function",
      "constant": true
    },
    {
      "inputs": [
        {
          "internalType": "bytes4",
          "name": "interfaceId",
          "type": "bytes4"
        }
      ],
      "name": "supportsInterface",
      "outputs": [
        {
          "internalType": "bool",
          "name": "",
          "type": "bool"
        }
      ],
      "stateMutability": "view",
      "type": "function",
      "constant": true
    },
    {
      "inputs": [],
      "name": "symbol",
      "outputs": [
        {
          "internalType": "string",
          "name": "",
          "type": "string"
        }
      ],
      "stateMutability": "view",
      "type": "function",
      "constant": true
    },
    {
      "inputs": [
        {
          "internalType": "uint256",
          "name": "index",
          "type": "uint256"
        }
      ],
      "name": "tokenByIndex",
      "outputs": [
        {
          "internalType": "uint256",
          "name": "",
          "type": "uint256"
        }
      ],
      "stateMutability": "view",
      "type": "function",
      "constant": true
    },
    {
      "inputs": [
        {
          "internalType": "address",
          "name": "owner",
          "type": "address"
        },
        {
          "internalType": "uint256",
          "name": "index",
          "type": "uint256"
        }
      ],
      "name": "tokenOfOwnerByIndex",
      "outputs": [
        {
          "internalType": "uint256",
          "name": "",
          "type": "uint256"
        }
      ],
      "stateMutability": "view",
      "type": "function",
      "constant": true
    },
    {
      "inputs": [
        {
          "internalType": "uint256",
          "name": "tokenId",
          "type": "uint256"
        }
      ],
      "name": "tokenURI",
      "outputs": [
        {
          "internalType": "string",
          "name": "",
          "type": "string"
        }
      ],
      "stateMutability": "view",
      "type": "function",
      "constant": true
    },
    {
      "inputs": [],
      "name": "totalSupply",
      "outputs": [
        {
          "internalType": "uint256",
          "name": "",
          "type": "uint256"
        }
      ],
      "stateMutability": "view",
      "type": "function",
      "constant": true
    },
    {
      "inputs": [],
      "name": "totalTx",
      "outputs": [
        {
          "internalType": "uint256",
          "name": "",
          "type": "uint256"
        }
      ],
      "stateMutability": "view",
      "type": "function",
      "constant": true
    },
    {
      "inputs": [
        {
          "internalType": "address",
          "name": "from",
          "type": "address"
        },
        {
          "internalType": "address",
          "name": "to",
          "type": "address"
        },
        {
          "internalType": "uint256",
          "name": "tokenId",
          "type": "uint256"
        }
      ],
      "name": "transferFrom",
      "outputs": [],
      "stateMutability": "payable",
      "type": "function",
      "payable": true
    },
    {
      "inputs": [
        {
          "internalType": "address",
          "name": "newOwner",
          "type": "address"
        }
      ],
      "name": "transferOwnership",
      "outputs": [],
      "stateMutability": "nonpayable",
      "type": "function"
    },
    {
      "inputs": [
        {
          "internalType": "string",
          "name": "title",
          "type": "string"
        },
        {
          "internalType": "uint256",
          "name": "salesPrice",
          "type": "uint256"
        },
        {
          "internalType": "string",
          "name": "description",
          "type": "string"
        },
        {
          "internalType": "string",
          "name": "metadataURI",
          "type": "string"
        }
      ],
      "name": "payToMint",
      "outputs": [],
      "stateMutability": "nonpayable",
      "type": "function"
    },
    {
      "inputs": [
        {
          "internalType": "uint256",
          "name": "tokenId",
          "type": "uint256"
        }
      ],
      "name": "payToBuy",
      "outputs": [],
      "stateMutability": "payable",
      "type": "function",
      "payable": true
    },
    {
      "inputs": [
        {
          "internalType": "uint256",
          "name": "tokenId",
          "type": "uint256"
        },
        {
          "internalType": "uint256",
          "name": "newPrice",
          "type": "uint256"
        }
      ],
      "name": "changePrice",
      "outputs": [
        {
          "internalType": "bool",
          "name": "",
          "type": "bool"
        }
      ],
      "stateMutability": "nonpayable",
      "type": "function"
    },
    {
      "inputs": [
        {
          "internalType": "uint256",
          "name": "_marketFee",
          "type": "uint256"
        }
      ],
      "name": "changeMarketFee",
      "outputs": [],
      "stateMutability": "nonpayable",
      "type": "function"
    },
    {
      "inputs": [
        {
          "internalType": "uint256",
          "name": "tokenId",
          "type": "uint256"
        }
      ],
      "name": "burnNFT",
      "outputs": [],
      "stateMutability": "nonpayable",
      "type": "function"
    },
    {
      "inputs": [
        {
          "internalType": "uint256",
          "name": "tokenId",
          "type": "uint256"
        }
      ],
      "name": "reListBurnedNFT",
      "outputs": [],
      "stateMutability": "nonpayable",
      "type": "function"
    },
    {
      "inputs": [],
      "name": "getMarketFee",
      "outputs": [
        {
          "internalType": "uint256",
          "name": "",
          "type": "uint256"
        }
      ],
      "stateMutability": "view",
      "type": "function",
      "constant": true
    },
    {
      "inputs": [],
      "name": "getAllNFTs",
      "outputs": [
        {
          "components": [
            {
              "internalType": "uint256",
              "name": "tokenId",
              "type": "uint256"
            },
            {
              "internalType": "address",
              "name": "owner",
              "type": "address"
            },
            {
              "internalType": "uint256",
              "name": "cost",
              "type": "uint256"
            },
            {
              "internalType": "string",
              "name": "title",
              "type": "string"
            },
            {
              "internalType": "string",
              "name": "description",
              "type": "string"
            },
            {
              "internalType": "string",
              "name": "metadataURI",
              "type": "string"
            },
            {
              "internalType": "uint256",
              "name": "timestamp",
              "type": "uint256"
            }
          ],
          "internalType": "struct SandPool.TransactionStruct[]",
          "name": "",
          "type": "tuple[]"
        }
      ],
      "stateMutability": "view",
      "type": "function",
      "constant": true
    },
    {
      "inputs": [
        {
          "internalType": "uint256",
          "name": "tokenId",
          "type": "uint256"
        }
      ],
      "name": "getNFT",
      "outputs": [
        {
          "components": [
            {
              "internalType": "uint256",
              "name": "tokenId",
              "type": "uint256"
            },
            {
              "internalType": "address",
              "name": "owner",
              "type": "address"
            },
            {
              "internalType": "uint256",
              "name": "cost",
              "type": "uint256"
            },
            {
              "internalType": "string",
              "name": "title",
              "type": "string"
            },
            {
              "internalType": "string",
              "name": "description",
              "type": "string"
            },
            {
              "internalType": "string",
              "name": "metadataURI",
              "type": "string"
            },
            {
              "internalType": "uint256",
              "name": "timestamp",
              "type": "uint256"
            }
          ],
          "internalType": "struct SandPool.TransactionStruct",
          "name": "",
          "type": "tuple"
        }
      ],
      "stateMutability": "view",
      "type": "function",
      "constant": true
    },
    {
      "inputs": [],
      "name": "getAllTransactions",
      "outputs": [
        {
          "components": [
            {
              "internalType": "uint256",
              "name": "tokenId",
              "type": "uint256"
            },
            {
              "internalType": "address",
              "name": "owner",
              "type": "address"
            },
            {
              "internalType": "uint256",
              "name": "cost",
              "type": "uint256"
            },
            {
              "internalType": "string",
              "name": "title",
              "type": "string"
            },
            {
              "internalType": "string",
              "name": "description",
              "type": "string"
            },
            {
              "internalType": "string",
              "name": "metadataURI",
              "type": "string"
            },
            {
              "internalType": "uint256",
              "name": "timestamp",
              "type": "uint256"
            }
          ],
          "internalType": "struct SandPool.TransactionStruct[]",
          "name": "",
          "type": "tuple[]"
        }
      ],
      "stateMutability": "view",
      "type": "function",
      "constant": true
    }
  ],
  "bytecode": "0x60806040526000600f5560006010553480156200001b57600080fd5b50604051620064dd380380620064dd83398181016040528101906200004191906200043e565b828281600090805190602001906200005b929190620001b6565b50806001908051906020019062000074929190620001b6565b505050620000976200008b620000e860201b60201c565b620000f060201b60201c565b80600e8190555033600d60006101000a81548173ffffffffffffffffffffffffffffffffffffffff021916908373ffffffffffffffffffffffffffffffffffffffff1602179055505050506200053d565b600033905090565b6000600a60009054906101000a900473ffffffffffffffffffffffffffffffffffffffff16905081600a60006101000a81548173ffffffffffffffffffffffffffffffffffffffff021916908373ffffffffffffffffffffffffffffffffffffffff1602179055508173ffffffffffffffffffffffffffffffffffffffff168173ffffffffffffffffffffffffffffffffffffffff167f8be0079c531659141344cd1fd0a4f28419497f9722a3daafe3b4186f6b6457e060405160405180910390a35050565b828054620001c49062000507565b90600052602060002090601f016020900481019282620001e8576000855562000234565b82601f106200020357805160ff191683800117855562000234565b8280016001018555821562000234579182015b828111156200023357825182559160200191906001019062000216565b5b50905062000243919062000247565b5090565b5b808211156200026257600081600090555060010162000248565b5090565b6000604051905090565b600080fd5b600080fd5b600080fd5b600080fd5b6000601f19601f8301169050919050565b7f4e487b7100000000000000000000000000000000000000000000000000000000600052604160045260246000fd5b620002cf8262000284565b810181811067ffffffffffffffff82111715620002f157620002f062000295565b5b80604052505050565b60006200030662000266565b9050620003148282620002c4565b919050565b600067ffffffffffffffff82111562000337576200033662000295565b5b620003428262000284565b9050602081019050919050565b60005b838110156200036f57808201518184015260208101905062000352565b838111156200037f576000848401525b50505050565b60006200039c620003968462000319565b620002fa565b905082815260208101848484011115620003bb57620003ba6200027f565b5b620003c88482856200034f565b509392505050565b600082601f830112620003e857620003e76200027a565b5b8151620003fa84826020860162000385565b91505092915050565b6000819050919050565b620004188162000403565b81146200042457600080fd5b50565b60008151905062000438816200040d565b92915050565b6000806000606084860312156200045a576200045962000270565b5b600084015167ffffffffffffffff8111156200047b576200047a62000275565b5b6200048986828701620003d0565b935050602084015167ffffffffffffffff811115620004ad57620004ac62000275565b5b620004bb86828701620003d0565b9250506040620004ce8682870162000427565b9150509250925092565b7f4e487b7100000000000000000000000000000000000000000000000000000000600052602260045260246000fd5b600060028204905060018216806200052057607f821691505b60208210811415620005375762000536620004d8565b5b50919050565b615f90806200054d6000396000f3fe6080604052600436106101f95760003560e01c80636138dd071161010d5780639ba4b017116100a0578063c87b56dd1161006f578063c87b56dd14610711578063dbacc2371461074e578063e0391b091461078b578063e985e9c5146107b6578063f2fde38b146107f3576101f9565b80639ba4b01714610673578063a22cb4651461068f578063b3de019c146106b8578063b88d4fde146106f5576101f9565b80637220cf39116100dc5780637220cf39146105c95780638da5cb5b146105f45780639217ec9d1461061f57806395d89b4114610648576101f9565b80636138dd071461050f5780636352211e1461053857806370a0823114610575578063715018a6146105b2576101f9565b806323b872dd1161019057806342842e0e1161015f57806342842e0e1461042357806347d90b5c1461043f5780634f6ccce71461046a578063576f7ea7146104a75780635e123add146104e4576101f9565b806323b872dd1461037657806327506f53146103925780632890e0d7146103bd5780632f745c59146103e6576101f9565b8063095ea7b3116101cc578063095ea7b3146102ce5780630ccf2156146102f757806318160ddd1461032257806321e337ca1461034d576101f9565b806301ffc9a7146101fe578063047fc9aa1461023b57806306fdde0314610266578063081812fc14610291575b600080fd5b34801561020a57600080fd5b50610225600480360381019061022091906143bd565b61081c565b6040516102329190614405565b60405180910390f35b34801561024757600080fd5b50610250610896565b60405161025d9190614439565b60405180910390f35b34801561027257600080fd5b5061027b61089c565b60405161028891906144ed565b60405180910390f35b34801561029d57600080fd5b506102b860048036038101906102b3919061453b565b61092e565b6040516102c591906145a9565b60405180910390f35b3480156102da57600080fd5b506102f560048036038101906102f091906145f0565b6109b3565b005b34801561030357600080fd5b5061030c610acb565b6040516103199190614439565b60405180910390f35b34801561032e57600080fd5b50610337610ad1565b6040516103449190614439565b60405180910390f35b34801561035957600080fd5b50610374600480360381019061036f9190614765565b610ade565b005b610390600480360381019061038b9190614820565b610f39565b005b34801561039e57600080fd5b506103a7610f99565b6040516103b49190614a47565b60405180910390f35b3480156103c957600080fd5b506103e460048036038101906103df919061453b565b611222565b005b3480156103f257600080fd5b5061040d600480360381019061040891906145f0565b6113e9565b60405161041a9190614439565b60405180910390f35b61043d60048036038101906104389190614820565b61148e565b005b34801561044b57600080fd5b506104546114ae565b60405161046191906145a9565b60405180910390f35b34801561047657600080fd5b50610491600480360381019061048c919061453b565b6114d4565b60405161049e9190614439565b60405180910390f35b3480156104b357600080fd5b506104ce60048036038101906104c9919061453b565b611545565b6040516104db9190614b13565b60405180910390f35b3480156104f057600080fd5b506104f96117b7565b6040516105069190614439565b60405180910390f35b34801561051b57600080fd5b506105366004803603810190610531919061453b565b6117c1565b005b34801561054457600080fd5b5061055f600480360381019061055a919061453b565b6117d3565b60405161056c91906145a9565b60405180910390f35b34801561058157600080fd5b5061059c60048036038101906105979190614b35565b611885565b6040516105a99190614439565b60405180910390f35b3480156105be57600080fd5b506105c761193d565b005b3480156105d557600080fd5b506105de611951565b6040516105eb9190614439565b60405180910390f35b34801561060057600080fd5b50610609611957565b60405161061691906145a9565b60405180910390f35b34801561062b57600080fd5b506106466004803603810190610641919061453b565b611981565b005b34801561065457600080fd5b5061065d611e39565b60405161066a91906144ed565b60405180910390f35b61068d6004803603810190610688919061453b565b611ecb565b005b34801561069b57600080fd5b506106b660048036038101906106b19190614b8e565b612683565b005b3480156106c457600080fd5b506106df60048036038101906106da9190614bce565b612699565b6040516106ec9190614405565b60405180910390f35b61070f600480360381019061070a9190614caf565b612812565b005b34801561071d57600080fd5b506107386004803603810190610733919061453b565b612874565b60405161074591906144ed565b60405180910390f35b34801561075a57600080fd5b506107756004803603810190610770919061453b565b61291b565b60405161078291906145a9565b60405180910390f35b34801561079757600080fd5b506107a061294e565b6040516107ad9190614a47565b60405180910390f35b3480156107c257600080fd5b506107dd60048036038101906107d89190614d32565b612bd7565b6040516107ea9190614405565b60405180910390f35b3480156107ff57600080fd5b5061081a60048036038101906108159190614b35565b612c6b565b005b60007f780e9d63000000000000000000000000000000000000000000000000000000007bffffffffffffffffffffffffffffffffffffffffffffffffffffffff1916827bffffffffffffffffffffffffffffffffffffffffffffffffffffffff1916148061088f575061088e82612cef565b5b9050919050565b600f5481565b6060600080546108ab90614da1565b80601f01602080910402602001604051908101604052809291908181526020018280546108d790614da1565b80156109245780601f106108f957610100808354040283529160200191610924565b820191906000526020600020905b81548152906001019060200180831161090757829003601f168201915b5050505050905090565b600061093982612dd1565b610978576040517f08c379a000000000000000000000000000000000000000000000000000000000815260040161096f90614e45565b60405180910390fd5b6004600083815260200190815260200160002060009054906101000a900473ffffffffffffffffffffffffffffffffffffffff169050919050565b60006109be826117d3565b90508073ffffffffffffffffffffffffffffffffffffffff168373ffffffffffffffffffffffffffffffffffffffff161415610a2f576040517f08c379a0000000000000000000000000000000000000000000000000000000008152600401610a2690614ed7565b60405180910390fd5b8073ffffffffffffffffffffffffffffffffffffffff16610a4e612e3d565b73ffffffffffffffffffffffffffffffffffffffff161480610a7d5750610a7c81610a77612e3d565b612bd7565b5b610abc576040517f08c379a0000000000000000000000000000000000000000000000000000000008152600401610ab390614f69565b60405180910390fd5b610ac68383612e45565b505050565b600e5481565b6000600880549050905090565b6000600b82604051610af09190614fc5565b908152602001604051809103902060009054906101000a900460ff1660ff1614610b4f576040517f08c379a0000000000000000000000000000000000000000000000000000000008152600401610b4690615028565b60405180910390fd5b610b57611957565b73ffffffffffffffffffffffffffffffffffffffff163373ffffffffffffffffffffffffffffffffffffffff161415610bc5576040517f08c379a0000000000000000000000000000000000000000000000000000000008152600401610bbc90615094565b60405180910390fd5b600f6000815480929190610bd8906150e3565b919050555060126040518060e00160405280600f5481526020013373ffffffffffffffffffffffffffffffffffffffff1681526020018581526020018681526020018481526020018381526020014281525090806001815401808255809150506001900390600052602060002090600702016000909190919091506000820151816000015560208201518160010160006101000a81548173ffffffffffffffffffffffffffffffffffffffff021916908373ffffffffffffffffffffffffffffffffffffffff160217905550604082015181600201556060820151816003019080519060200190610cca92919061418e565b506080820151816004019080519060200190610ce792919061418e565b5060a0820151816005019080519060200190610d0492919061418e565b5060c08201518160060155505060136040518060e00160405280600f5481526020013373ffffffffffffffffffffffffffffffffffffffff1681526020018581526020018681526020018481526020018381526020014281525090806001815401808255809150506001900390600052602060002090600702016000909190919091506000820151816000015560208201518160010160006101000a81548173ffffffffffffffffffffffffffffffffffffffff021916908373ffffffffffffffffffffffffffffffffffffffff160217905550604082015181600201556060820151816003019080519060200190610dfe92919061418e565b506080820151816004019080519060200190610e1b92919061418e565b5060a0820151816005019080519060200190610e3892919061418e565b5060c0820151816006015550503373ffffffffffffffffffffffffffffffffffffffff167fb9508407a6eccb191d8da3286f4173697cf95604e9ea192fe5ab7c862b5221f6600f54858442604051610e93949392919061512c565b60405180910390a2610ea733600f54612efe565b6001600b82604051610eb99190614fc5565b908152602001604051809103902060006101000a81548160ff021916908360ff16021790555033600c6000600f54815260200190815260200160002060006101000a81548173ffffffffffffffffffffffffffffffffffffffff021916908373ffffffffffffffffffffffffffffffffffffffff16021790555050505050565b610f4a610f44612e3d565b82612f1c565b610f89576040517f08c379a0000000000000000000000000000000000000000000000000000000008152600401610f80906151ea565b60405180910390fd5b610f94838383612ffa565b505050565b60606011805480602002602001604051908101604052809291908181526020016000905b8282101561121957838290600052602060002090600702016040518060e0016040529081600082015481526020016001820160009054906101000a900473ffffffffffffffffffffffffffffffffffffffff1673ffffffffffffffffffffffffffffffffffffffff1673ffffffffffffffffffffffffffffffffffffffff1681526020016002820154815260200160038201805461105a90614da1565b80601f016020809104026020016040519081016040528092919081815260200182805461108690614da1565b80156110d35780601f106110a8576101008083540402835291602001916110d3565b820191906000526020600020905b8154815290600101906020018083116110b657829003601f168201915b505050505081526020016004820180546110ec90614da1565b80601f016020809104026020016040519081016040528092919081815260200182805461111890614da1565b80156111655780601f1061113a57610100808354040283529160200191611165565b820191906000526020600020905b81548152906001019060200180831161114857829003601f168201915b5050505050815260200160058201805461117e90614da1565b80601f01602080910402602001604051908101604052809291908181526020018280546111aa90614da1565b80156111f75780601f106111cc576101008083540402835291602001916111f7565b820191906000526020600020905b8154815290600101906020018083116111da57829003601f168201915b5050505050815260200160068201548152505081526020019060010190610fbd565b50505050905090565b61122a613256565b611233816132d4565b6012600182611242919061520a565b815481106112535761125261523e565b5b90600052602060002090600702016000808201600090556001820160006101000a81549073ffffffffffffffffffffffffffffffffffffffff021916905560028201600090556003820160006112a99190614214565b6004820160006112b99190614214565b6005820160006112c99190614214565b600682016000905550506000600c600083815260200190815260200160002060006101000a81548173ffffffffffffffffffffffffffffffffffffffff021916908373ffffffffffffffffffffffffffffffffffffffff160217905550600073ffffffffffffffffffffffffffffffffffffffff16601260018361134d919061520a565b8154811061135e5761135d61523e565b5b906000526020600020906007020160010160009054906101000a900473ffffffffffffffffffffffffffffffffffffffff1673ffffffffffffffffffffffffffffffffffffffff16146113e6576040517f08c379a00000000000000000000000000000000000000000000000000000000081526004016113dd906152b9565b60405180910390fd5b50565b60006113f483611885565b8210611435576040517f08c379a000000000000000000000000000000000000000000000000000000000815260040161142c9061534b565b60405180910390fd5b600660008473ffffffffffffffffffffffffffffffffffffffff1673ffffffffffffffffffffffffffffffffffffffff168152602001908152602001600020600083815260200190815260200160002054905092915050565b6114a983838360405180602001604052806000815250612812565b505050565b600d60009054906101000a900473ffffffffffffffffffffffffffffffffffffffff1681565b60006114de610ad1565b821061151f576040517f08c379a0000000000000000000000000000000000000000000000000000000008152600401611516906153dd565b60405180910390fd5b600882815481106115335761153261523e565b5b90600052602060002001549050919050565b61154d614254565b601260018361155c919061520a565b8154811061156d5761156c61523e565b5b90600052602060002090600702016040518060e0016040529081600082015481526020016001820160009054906101000a900473ffffffffffffffffffffffffffffffffffffffff1673ffffffffffffffffffffffffffffffffffffffff1673ffffffffffffffffffffffffffffffffffffffff1681526020016002820154815260200160038201805461160090614da1565b80601f016020809104026020016040519081016040528092919081815260200182805461162c90614da1565b80156116795780601f1061164e57610100808354040283529160200191611679565b820191906000526020600020905b81548152906001019060200180831161165c57829003601f168201915b5050505050815260200160048201805461169290614da1565b80601f01602080910402602001604051908101604052809291908181526020018280546116be90614da1565b801561170b5780601f106116e05761010080835404028352916020019161170b565b820191906000526020600020905b8154815290600101906020018083116116ee57829003601f168201915b5050505050815260200160058201805461172490614da1565b80601f016020809104026020016040519081016040528092919081815260200182805461175090614da1565b801561179d5780601f106117725761010080835404028352916020019161179d565b820191906000526020600020905b81548152906001019060200180831161178057829003601f168201915b505050505081526020016006820154815250509050919050565b6000600e54905090565b6117c9613256565b80600e8190555050565b6000806002600084815260200190815260200160002060009054906101000a900473ffffffffffffffffffffffffffffffffffffffff169050600073ffffffffffffffffffffffffffffffffffffffff168173ffffffffffffffffffffffffffffffffffffffff16141561187c576040517f08c379a00000000000000000000000000000000000000000000000000000000081526004016118739061546f565b60405180910390fd5b80915050919050565b60008073ffffffffffffffffffffffffffffffffffffffff168273ffffffffffffffffffffffffffffffffffffffff1614156118f6576040517f08c379a00000000000000000000000000000000000000000000000000000000081526004016118ed90615501565b60405180910390fd5b600360008373ffffffffffffffffffffffffffffffffffffffff1673ffffffffffffffffffffffffffffffffffffffff168152602001908152602001600020549050919050565b611945613256565b61194f60006133e5565b565b60105481565b6000600a60009054906101000a900473ffffffffffffffffffffffffffffffffffffffff16905090565b611989613256565b60005b601380549050811015611dfa5781601382815481106119ae576119ad61523e565b5b9060005260206000209060070201600001541415611de757601381815481106119da576119d961523e565b5b90600052602060002090600702016000015460126001846119fb919061520a565b81548110611a0c57611a0b61523e565b5b90600052602060002090600702016000018190555060138181548110611a3557611a3461523e565b5b906000526020600020906007020160010160009054906101000a900473ffffffffffffffffffffffffffffffffffffffff166012600184611a76919061520a565b81548110611a8757611a8661523e565b5b906000526020600020906007020160010160006101000a81548173ffffffffffffffffffffffffffffffffffffffff021916908373ffffffffffffffffffffffffffffffffffffffff16021790555060138181548110611aea57611ae961523e565b5b9060005260206000209060070201600201546012600184611b0b919061520a565b81548110611b1c57611b1b61523e565b5b90600052602060002090600702016002018190555060138181548110611b4557611b4461523e565b5b90600052602060002090600702016003016012600184611b65919061520a565b81548110611b7657611b7561523e565b5b9060005260206000209060070201600301908054611b9390614da1565b611b9e9291906142a7565b5060138181548110611bb357611bb261523e565b5b90600052602060002090600702016004016012600184611bd3919061520a565b81548110611be457611be361523e565b5b9060005260206000209060070201600401908054611c0190614da1565b611c0c9291906142a7565b5060138181548110611c2157611c2061523e565b5b90600052602060002090600702016005016012600184611c41919061520a565b81548110611c5257611c5161523e565b5b9060005260206000209060070201600501908054611c6f90614da1565b611c7a9291906142a7565b5060138181548110611c8f57611c8e61523e565b5b9060005260206000209060070201600601546012600184611cb0919061520a565b81548110611cc157611cc061523e565b5b90600052602060002090600702016006018190555060138181548110611cea57611ce961523e565b5b906000526020600020906007020160010160009054906101000a900473ffffffffffffffffffffffffffffffffffffffff16600c600084815260200190815260200160002060006101000a81548173ffffffffffffffffffffffffffffffffffffffff021916908373ffffffffffffffffffffffffffffffffffffffff160217905550611de160138281548110611d8457611d8361523e565b5b906000526020600020906007020160010160009054906101000a900473ffffffffffffffffffffffffffffffffffffffff1660138381548110611dca57611dc961523e565b5b906000526020600020906007020160000154612efe565b50611e36565b8080611df2906150e3565b91505061198c565b506040517f08c379a0000000000000000000000000000000000000000000000000000000008152600401611e2d906152b9565b60405180910390fd5b50565b606060018054611e4890614da1565b80601f0160208091040260200160405190810160405280929190818152602001828054611e7490614da1565b8015611ec15780601f10611e9657610100808354040283529160200191611ec1565b820191906000526020600020905b815481529060010190602001808311611ea457829003601f168201915b5050505050905090565b600073ffffffffffffffffffffffffffffffffffffffff166012600183611ef2919061520a565b81548110611f0357611f0261523e565b5b906000526020600020906007020160010160009054906101000a900473ffffffffffffffffffffffffffffffffffffffff1673ffffffffffffffffffffffffffffffffffffffff161415611f8c576040517f08c379a0000000000000000000000000000000000000000000000000000000008152600401611f839061556d565b60405180910390fd5b6012600182611f9b919061520a565b81548110611fac57611fab61523e565b5b906000526020600020906007020160020154341015612000576040517f08c379a0000000000000000000000000000000000000000000000000000000008152600401611ff7906155d9565b60405180910390fd5b601260018261200f919061520a565b815481106120205761201f61523e565b5b906000526020600020906007020160010160009054906101000a900473ffffffffffffffffffffffffffffffffffffffff1673ffffffffffffffffffffffffffffffffffffffff163373ffffffffffffffffffffffffffffffffffffffff1614156120c0576040517f08c379a00000000000000000000000000000000000000000000000000000000081526004016120b790615645565b60405180910390fd5b60006064600e54346120d29190615665565b6120dc91906156ee565b905061210a600d60009054906101000a900473ffffffffffffffffffffffffffffffffffffffff16826134ab565b612170601260018461211c919061520a565b8154811061212d5761212c61523e565b5b906000526020600020906007020160010160009054906101000a900473ffffffffffffffffffffffffffffffffffffffff16823461216b919061520a565b6134ab565b60106000815480929190612183906150e3565b919050555060116040518060e001604052808481526020013373ffffffffffffffffffffffffffffffffffffffff16815260200134815260200160126001866121cc919061520a565b815481106121dd576121dc61523e565b5b906000526020600020906007020160030180546121f990614da1565b80601f016020809104026020016040519081016040528092919081815260200182805461222590614da1565b80156122725780601f1061224757610100808354040283529160200191612272565b820191906000526020600020905b81548152906001019060200180831161225557829003601f168201915b50505050508152602001601260018661228b919061520a565b8154811061229c5761229b61523e565b5b906000526020600020906007020160040180546122b890614da1565b80601f01602080910402602001604051908101604052809291908181526020018280546122e490614da1565b80156123315780601f1061230657610100808354040283529160200191612331565b820191906000526020600020905b81548152906001019060200180831161231457829003601f168201915b50505050508152602001601260018661234a919061520a565b8154811061235b5761235a61523e565b5b9060005260206000209060070201600501805461237790614da1565b80601f01602080910402602001604051908101604052809291908181526020018280546123a390614da1565b80156123f05780601f106123c5576101008083540402835291602001916123f0565b820191906000526020600020905b8154815290600101906020018083116123d357829003601f168201915b505050505081526020014281525090806001815401808255809150506001900390600052602060002090600702016000909190919091506000820151816000015560208201518160010160006101000a81548173ffffffffffffffffffffffffffffffffffffffff021916908373ffffffffffffffffffffffffffffffffffffffff16021790555060408201518160020155606082015181600301908051906020019061249e92919061418e565b5060808201518160040190805190602001906124bb92919061418e565b5060a08201518160050190805190602001906124d892919061418e565b5060c0820151816006015550503360136001846124f5919061520a565b815481106125065761250561523e565b5b906000526020600020906007020160010160006101000a81548173ffffffffffffffffffffffffffffffffffffffff021916908373ffffffffffffffffffffffffffffffffffffffff160217905550426013600184612565919061520a565b815481106125765761257561523e565b5b9060005260206000209060070201600601819055503373ffffffffffffffffffffffffffffffffffffffff167fb9508407a6eccb191d8da3286f4173697cf95604e9ea192fe5ab7c862b5221f6833460126001876125d4919061520a565b815481106125e5576125e461523e565b5b90600052602060002090600702016005014260405161260794939291906157b4565b60405180910390a233601260018461261f919061520a565b815481106126305761262f61523e565b5b906000526020600020906007020160010160006101000a81548173ffffffffffffffffffffffffffffffffffffffff021916908373ffffffffffffffffffffffffffffffffffffffff1602179055505050565b61269561268e612e3d565b8383613526565b5050565b60008082116126dd576040517f08c379a00000000000000000000000000000000000000000000000000000000081526004016126d49061584c565b60405180910390fd5b60126001846126ec919061520a565b815481106126fd576126fc61523e565b5b906000526020600020906007020160010160009054906101000a900473ffffffffffffffffffffffffffffffffffffffff1673ffffffffffffffffffffffffffffffffffffffff163373ffffffffffffffffffffffffffffffffffffffff161461279c576040517f08c379a000000000000000000000000000000000000000000000000000000000815260040161279390615645565b60405180910390fd5b8160126001856127ac919061520a565b815481106127bd576127bc61523e565b5b9060005260206000209060070201600201819055508160136001856127e2919061520a565b815481106127f3576127f261523e565b5b9060005260206000209060070201600201819055506001905092915050565b61282361281d612e3d565b83612f1c565b612862576040517f08c379a0000000000000000000000000000000000000000000000000000000008152600401612859906151ea565b60405180910390fd5b61286e84848484613693565b50505050565b606061287f82612dd1565b6128be576040517f08c379a00000000000000000000000000000000000000000000000000000000081526004016128b5906158de565b60405180910390fd5b60006128c86136ef565b905060008151116128e85760405180602001604052806000815250612913565b806128f284613706565b6040516020016129039291906158fe565b6040516020818303038152906040525b915050919050565b600c6020528060005260406000206000915054906101000a900473ffffffffffffffffffffffffffffffffffffffff1681565b60606012805480602002602001604051908101604052809291908181526020016000905b82821015612bce57838290600052602060002090600702016040518060e0016040529081600082015481526020016001820160009054906101000a900473ffffffffffffffffffffffffffffffffffffffff1673ffffffffffffffffffffffffffffffffffffffff1673ffffffffffffffffffffffffffffffffffffffff16815260200160028201548152602001600382018054612a0f90614da1565b80601f0160208091040260200160405190810160405280929190818152602001828054612a3b90614da1565b8015612a885780601f10612a5d57610100808354040283529160200191612a88565b820191906000526020600020905b815481529060010190602001808311612a6b57829003601f168201915b50505050508152602001600482018054612aa190614da1565b80601f0160208091040260200160405190810160405280929190818152602001828054612acd90614da1565b8015612b1a5780601f10612aef57610100808354040283529160200191612b1a565b820191906000526020600020905b815481529060010190602001808311612afd57829003601f168201915b50505050508152602001600582018054612b3390614da1565b80601f0160208091040260200160405190810160405280929190818152602001828054612b5f90614da1565b8015612bac5780601f10612b8157610100808354040283529160200191612bac565b820191906000526020600020905b815481529060010190602001808311612b8f57829003601f168201915b5050505050815260200160068201548152505081526020019060010190612972565b50505050905090565b6000600560008473ffffffffffffffffffffffffffffffffffffffff1673ffffffffffffffffffffffffffffffffffffffff16815260200190815260200160002060008373ffffffffffffffffffffffffffffffffffffffff1673ffffffffffffffffffffffffffffffffffffffff16815260200190815260200160002060009054906101000a900460ff16905092915050565b612c73613256565b600073ffffffffffffffffffffffffffffffffffffffff168173ffffffffffffffffffffffffffffffffffffffff161415612ce3576040517f08c379a0000000000000000000000000000000000000000000000000000000008152600401612cda90615994565b60405180910390fd5b612cec816133e5565b50565b60007f80ac58cd000000000000000000000000000000000000000000000000000000007bffffffffffffffffffffffffffffffffffffffffffffffffffffffff1916827bffffffffffffffffffffffffffffffffffffffffffffffffffffffff19161480612dba57507f5b5e139f000000000000000000000000000000000000000000000000000000007bffffffffffffffffffffffffffffffffffffffffffffffffffffffff1916827bffffffffffffffffffffffffffffffffffffffffffffffffffffffff1916145b80612dca5750612dc9826137de565b5b9050919050565b60008073ffffffffffffffffffffffffffffffffffffffff166002600084815260200190815260200160002060009054906101000a900473ffffffffffffffffffffffffffffffffffffffff1673ffffffffffffffffffffffffffffffffffffffff1614159050919050565b600033905090565b816004600083815260200190815260200160002060006101000a81548173ffffffffffffffffffffffffffffffffffffffff021916908373ffffffffffffffffffffffffffffffffffffffff160217905550808273ffffffffffffffffffffffffffffffffffffffff16612eb8836117d3565b73ffffffffffffffffffffffffffffffffffffffff167f8c5be1e5ebec7d5bd14f71427d1e84f3dd0314c0f7b2291e5b200ac8c7c3b92560405160405180910390a45050565b612f18828260405180602001604052806000815250613848565b5050565b6000612f2782612dd1565b612f66576040517f08c379a0000000000000000000000000000000000000000000000000000000008152600401612f5d90615a26565b60405180910390fd5b6000612f71836117d3565b90508073ffffffffffffffffffffffffffffffffffffffff168473ffffffffffffffffffffffffffffffffffffffff161480612fe057508373ffffffffffffffffffffffffffffffffffffffff16612fc88461092e565b73ffffffffffffffffffffffffffffffffffffffff16145b80612ff15750612ff08185612bd7565b5b91505092915050565b8273ffffffffffffffffffffffffffffffffffffffff1661301a826117d3565b73ffffffffffffffffffffffffffffffffffffffff1614613070576040517f08c379a000000000000000000000000000000000000000000000000000000000815260040161306790615ab8565b60405180910390fd5b600073ffffffffffffffffffffffffffffffffffffffff168273ffffffffffffffffffffffffffffffffffffffff1614156130e0576040517f08c379a00000000000000000000000000000000000000000000000000000000081526004016130d790615b4a565b60405180910390fd5b6130eb8383836138a3565b6130f6600082612e45565b6001600360008573ffffffffffffffffffffffffffffffffffffffff1673ffffffffffffffffffffffffffffffffffffffff1681526020019081526020016000206000828254613146919061520a565b925050819055506001600360008473ffffffffffffffffffffffffffffffffffffffff1673ffffffffffffffffffffffffffffffffffffffff168152602001908152602001600020600082825461319d9190615b6a565b92505081905550816002600083815260200190815260200160002060006101000a81548173ffffffffffffffffffffffffffffffffffffffff021916908373ffffffffffffffffffffffffffffffffffffffff160217905550808273ffffffffffffffffffffffffffffffffffffffff168473ffffffffffffffffffffffffffffffffffffffff167fddf252ad1be2c89b69c2b068fc378daa952ba7f163c4a11628f55a4df523b3ef60405160405180910390a4505050565b61325e612e3d565b73ffffffffffffffffffffffffffffffffffffffff1661327c611957565b73ffffffffffffffffffffffffffffffffffffffff16146132d2576040517f08c379a00000000000000000000000000000000000000000000000000000000081526004016132c990615c0c565b60405180910390fd5b565b60006132df826117d3565b90506132ed816000846138a3565b6132f8600083612e45565b6001600360008373ffffffffffffffffffffffffffffffffffffffff1673ffffffffffffffffffffffffffffffffffffffff1681526020019081526020016000206000828254613348919061520a565b925050819055506002600083815260200190815260200160002060006101000a81549073ffffffffffffffffffffffffffffffffffffffff021916905581600073ffffffffffffffffffffffffffffffffffffffff168273ffffffffffffffffffffffffffffffffffffffff167fddf252ad1be2c89b69c2b068fc378daa952ba7f163c4a11628f55a4df523b3ef60405160405180910390a45050565b6000600a60009054906101000a900473ffffffffffffffffffffffffffffffffffffffff16905081600a60006101000a81548173ffffffffffffffffffffffffffffffffffffffff021916908373ffffffffffffffffffffffffffffffffffffffff1602179055508173ffffffffffffffffffffffffffffffffffffffff168173ffffffffffffffffffffffffffffffffffffffff167f8be0079c531659141344cd1fd0a4f28419497f9722a3daafe3b4186f6b6457e060405160405180910390a35050565b60008273ffffffffffffffffffffffffffffffffffffffff16826040516134d190615c5d565b60006040518083038185875af1925050503d806000811461350e576040519150601f19603f3d011682016040523d82523d6000602084013e613513565b606091505b505090508061352157600080fd5b505050565b8173ffffffffffffffffffffffffffffffffffffffff168373ffffffffffffffffffffffffffffffffffffffff161415613595576040517f08c379a000000000000000000000000000000000000000000000000000000000815260040161358c90615cbe565b60405180910390fd5b80600560008573ffffffffffffffffffffffffffffffffffffffff1673ffffffffffffffffffffffffffffffffffffffff16815260200190815260200160002060008473ffffffffffffffffffffffffffffffffffffffff1673ffffffffffffffffffffffffffffffffffffffff16815260200190815260200160002060006101000a81548160ff0219169083151502179055508173ffffffffffffffffffffffffffffffffffffffff168373ffffffffffffffffffffffffffffffffffffffff167f17307eab39ab6107e8899845ad3d59bd9653f200f220920489ca2b5937696c31836040516136869190614405565b60405180910390a3505050565b61369e848484612ffa565b6136aa848484846139b7565b6136e9576040517f08c379a00000000000000000000000000000000000000000000000000000000081526004016136e090615d50565b60405180910390fd5b50505050565b606060405180602001604052806000815250905090565b60606000600161371584613b3f565b01905060008167ffffffffffffffff8111156137345761373361463a565b5b6040519080825280601f01601f1916602001820160405280156137665781602001600182028036833780820191505090505b509050600082602001820190505b6001156137d3578080600190039150507f3031323334353637383961626364656600000000000000000000000000000000600a86061a8153600a85816137bd576137bc6156bf565b5b04945060008514156137ce576137d3565b613774565b819350505050919050565b60007f01ffc9a7000000000000000000000000000000000000000000000000000000007bffffffffffffffffffffffffffffffffffffffffffffffffffffffff1916827bffffffffffffffffffffffffffffffffffffffffffffffffffffffff1916149050919050565b6138528383613c92565b61385f60008484846139b7565b61389e576040517f08c379a000000000000000000000000000000000000000000000000000000000815260040161389590615d50565b60405180910390fd5b505050565b6138ae838383613e60565b600073ffffffffffffffffffffffffffffffffffffffff168373ffffffffffffffffffffffffffffffffffffffff1614156138f1576138ec81613e65565b613930565b8173ffffffffffffffffffffffffffffffffffffffff168373ffffffffffffffffffffffffffffffffffffffff161461392f5761392e8382613eae565b5b5b600073ffffffffffffffffffffffffffffffffffffffff168273ffffffffffffffffffffffffffffffffffffffff1614156139735761396e8161401b565b6139b2565b8273ffffffffffffffffffffffffffffffffffffffff168273ffffffffffffffffffffffffffffffffffffffff16146139b1576139b082826140ec565b5b5b505050565b60006139d88473ffffffffffffffffffffffffffffffffffffffff1661416b565b15613b32578373ffffffffffffffffffffffffffffffffffffffff1663150b7a02613a01612e3d565b8786866040518563ffffffff1660e01b8152600401613a239493929190615dc5565b6020604051808303816000875af1925050508015613a5f57506040513d601f19601f82011682018060405250810190613a5c9190615e26565b60015b613ae2573d8060008114613a8f576040519150601f19603f3d011682016040523d82523d6000602084013e613a94565b606091505b50600081511415613ada576040517f08c379a0000000000000000000000000000000000000000000000000000000008152600401613ad190615d50565b60405180910390fd5b805181602001fd5b63150b7a0260e01b7bffffffffffffffffffffffffffffffffffffffffffffffffffffffff1916817bffffffffffffffffffffffffffffffffffffffffffffffffffffffff191614915050613b37565b600190505b949350505050565b600080600090507a184f03e93ff9f4daa797ed6e38ed64bf6a1f0100000000000000008310613b9d577a184f03e93ff9f4daa797ed6e38ed64bf6a1f0100000000000000008381613b9357613b926156bf565b5b0492506040810190505b6d04ee2d6d415b85acef81000000008310613bda576d04ee2d6d415b85acef81000000008381613bd057613bcf6156bf565b5b0492506020810190505b662386f26fc100008310613c0957662386f26fc100008381613bff57613bfe6156bf565b5b0492506010810190505b6305f5e1008310613c32576305f5e1008381613c2857613c276156bf565b5b0492506008810190505b6127108310613c57576127108381613c4d57613c4c6156bf565b5b0492506004810190505b60648310613c7a5760648381613c7057613c6f6156bf565b5b0492506002810190505b600a8310613c89576001810190505b80915050919050565b600073ffffffffffffffffffffffffffffffffffffffff168273ffffffffffffffffffffffffffffffffffffffff161415613d02576040517f08c379a0000000000000000000000000000000000000000000000000000000008152600401613cf990615e9f565b60405180910390fd5b613d0b81612dd1565b15613d4b576040517f08c379a0000000000000000000000000000000000000000000000000000000008152600401613d4290615f0b565b60405180910390fd5b613d57600083836138a3565b6001600360008473ffffffffffffffffffffffffffffffffffffffff1673ffffffffffffffffffffffffffffffffffffffff1681526020019081526020016000206000828254613da79190615b6a565b92505081905550816002600083815260200190815260200160002060006101000a81548173ffffffffffffffffffffffffffffffffffffffff021916908373ffffffffffffffffffffffffffffffffffffffff160217905550808273ffffffffffffffffffffffffffffffffffffffff16600073ffffffffffffffffffffffffffffffffffffffff167fddf252ad1be2c89b69c2b068fc378daa952ba7f163c4a11628f55a4df523b3ef60405160405180910390a45050565b505050565b6008805490506009600083815260200190815260200160002081905550600881908060018154018082558091505060019003906000526020600020016000909190919091505550565b60006001613ebb84611885565b613ec5919061520a565b9050600060076000848152602001908152602001600020549050818114613faa576000600660008673ffffffffffffffffffffffffffffffffffffffff1673ffffffffffffffffffffffffffffffffffffffff168152602001908152602001600020600084815260200190815260200160002054905080600660008773ffffffffffffffffffffffffffffffffffffffff1673ffffffffffffffffffffffffffffffffffffffff168152602001908152602001600020600084815260200190815260200160002081905550816007600083815260200190815260200160002081905550505b6007600084815260200190815260200160002060009055600660008573ffffffffffffffffffffffffffffffffffffffff1673ffffffffffffffffffffffffffffffffffffffff16815260200190815260200160002060008381526020019081526020016000206000905550505050565b6000600160088054905061402f919061520a565b905060006009600084815260200190815260200160002054905060006008838154811061405f5761405e61523e565b5b9060005260206000200154905080600883815481106140815761408061523e565b5b9060005260206000200181905550816009600083815260200190815260200160002081905550600960008581526020019081526020016000206000905560088054806140d0576140cf615f2b565b5b6001900381819060005260206000200160009055905550505050565b60006140f783611885565b905081600660008573ffffffffffffffffffffffffffffffffffffffff1673ffffffffffffffffffffffffffffffffffffffff168152602001908152602001600020600083815260200190815260200160002081905550806007600084815260200190815260200160002081905550505050565b6000808273ffffffffffffffffffffffffffffffffffffffff163b119050919050565b82805461419a90614da1565b90600052602060002090601f0160209004810192826141bc5760008555614203565b82601f106141d557805160ff1916838001178555614203565b82800160010185558215614203579182015b828111156142025782518255916020019190600101906141e7565b5b5090506142109190614334565b5090565b50805461422090614da1565b6000825580601f106142325750614251565b601f0160209004906000526020600020908101906142509190614334565b5b50565b6040518060e0016040528060008152602001600073ffffffffffffffffffffffffffffffffffffffff16815260200160008152602001606081526020016060815260200160608152602001600081525090565b8280546142b390614da1565b90600052602060002090601f0160209004810192826142d55760008555614323565b82601f106142e65780548555614323565b8280016001018555821561432357600052602060002091601f016020900482015b82811115614322578254825591600101919060010190614307565b5b5090506143309190614334565b5090565b5b8082111561434d576000816000905550600101614335565b5090565b6000604051905090565b600080fd5b600080fd5b60007fffffffff0000000000000000000000000000000000000000000000000000000082169050919050565b61439a81614365565b81146143a557600080fd5b50565b6000813590506143b781614391565b92915050565b6000602082840312156143d3576143d261435b565b5b60006143e1848285016143a8565b91505092915050565b60008115159050919050565b6143ff816143ea565b82525050565b600060208201905061441a60008301846143f6565b92915050565b6000819050919050565b61443381614420565b82525050565b600060208201905061444e600083018461442a565b92915050565b600081519050919050565b600082825260208201905092915050565b60005b8381101561448e578082015181840152602081019050614473565b8381111561449d576000848401525b50505050565b6000601f19601f8301169050919050565b60006144bf82614454565b6144c9818561445f565b93506144d9818560208601614470565b6144e2816144a3565b840191505092915050565b6000602082019050818103600083015261450781846144b4565b905092915050565b61451881614420565b811461452357600080fd5b50565b6000813590506145358161450f565b92915050565b6000602082840312156145515761455061435b565b5b600061455f84828501614526565b91505092915050565b600073ffffffffffffffffffffffffffffffffffffffff82169050919050565b600061459382614568565b9050919050565b6145a381614588565b82525050565b60006020820190506145be600083018461459a565b92915050565b6145cd81614588565b81146145d857600080fd5b50565b6000813590506145ea816145c4565b92915050565b600080604083850312156146075761460661435b565b5b6000614615858286016145db565b925050602061462685828601614526565b9150509250929050565b600080fd5b600080fd5b7f4e487b7100000000000000000000000000000000000000000000000000000000600052604160045260246000fd5b614672826144a3565b810181811067ffffffffffffffff821117156146915761469061463a565b5b80604052505050565b60006146a4614351565b90506146b08282614669565b919050565b600067ffffffffffffffff8211156146d0576146cf61463a565b5b6146d9826144a3565b9050602081019050919050565b82818337600083830152505050565b6000614708614703846146b5565b61469a565b90508281526020810184848401111561472457614723614635565b5b61472f8482856146e6565b509392505050565b600082601f83011261474c5761474b614630565b5b813561475c8482602086016146f5565b91505092915050565b6000806000806080858703121561477f5761477e61435b565b5b600085013567ffffffffffffffff81111561479d5761479c614360565b5b6147a987828801614737565b94505060206147ba87828801614526565b935050604085013567ffffffffffffffff8111156147db576147da614360565b5b6147e787828801614737565b925050606085013567ffffffffffffffff81111561480857614807614360565b5b61481487828801614737565b91505092959194509250565b6000806000606084860312156148395761483861435b565b5b6000614847868287016145db565b9350506020614858868287016145db565b925050604061486986828701614526565b9150509250925092565b600081519050919050565b600082825260208201905092915050565b6000819050602082019050919050565b6148a881614420565b82525050565b6148b781614588565b82525050565b600082825260208201905092915050565b60006148d982614454565b6148e381856148bd565b93506148f3818560208601614470565b6148fc816144a3565b840191505092915050565b600060e08301600083015161491f600086018261489f565b50602083015161493260208601826148ae565b506040830151614945604086018261489f565b506060830151848203606086015261495d82826148ce565b9150506080830151848203608086015261497782826148ce565b91505060a083015184820360a086015261499182826148ce565b91505060c08301516149a660c086018261489f565b508091505092915050565b60006149bd8383614907565b905092915050565b6000602082019050919050565b60006149dd82614873565b6149e7818561487e565b9350836020820285016149f98561488f565b8060005b85811015614a355784840389528151614a1685826149b1565b9450614a21836149c5565b925060208a019950506001810190506149fd565b50829750879550505050505092915050565b60006020820190508181036000830152614a6181846149d2565b905092915050565b600060e083016000830151614a81600086018261489f565b506020830151614a9460208601826148ae565b506040830151614aa7604086018261489f565b5060608301518482036060860152614abf82826148ce565b91505060808301518482036080860152614ad982826148ce565b91505060a083015184820360a0860152614af382826148ce565b91505060c0830151614b0860c086018261489f565b508091505092915050565b60006020820190508181036000830152614b2d8184614a69565b905092915050565b600060208284031215614b4b57614b4a61435b565b5b6000614b59848285016145db565b91505092915050565b614b6b816143ea565b8114614b7657600080fd5b50565b600081359050614b8881614b62565b92915050565b60008060408385031215614ba557614ba461435b565b5b6000614bb3858286016145db565b9250506020614bc485828601614b79565b9150509250929050565b60008060408385031215614be557614be461435b565b5b6000614bf385828601614526565b9250506020614c0485828601614526565b9150509250929050565b600067ffffffffffffffff821115614c2957614c2861463a565b5b614c32826144a3565b9050602081019050919050565b6000614c52614c4d84614c0e565b61469a565b905082815260208101848484011115614c6e57614c6d614635565b5b614c798482856146e6565b509392505050565b600082601f830112614c9657614c95614630565b5b8135614ca6848260208601614c3f565b91505092915050565b60008060008060808587031215614cc957614cc861435b565b5b6000614cd7878288016145db565b9450506020614ce8878288016145db565b9350506040614cf987828801614526565b925050606085013567ffffffffffffffff811115614d1a57614d19614360565b5b614d2687828801614c81565b91505092959194509250565b60008060408385031215614d4957614d4861435b565b5b6000614d57858286016145db565b9250506020614d68858286016145db565b9150509250929050565b7f4e487b7100000000000000000000000000000000000000000000000000000000600052602260045260246000fd5b60006002820490506001821680614db957607f821691505b60208210811415614dcd57614dcc614d72565b5b50919050565b7f4552433732313a20617070726f76656420717565727920666f72206e6f6e657860008201527f697374656e7420746f6b656e0000000000000000000000000000000000000000602082015250565b6000614e2f602c8361445f565b9150614e3a82614dd3565b604082019050919050565b60006020820190508181036000830152614e5e81614e22565b9050919050565b7f4552433732313a20617070726f76616c20746f2063757272656e74206f776e6560008201527f7200000000000000000000000000000000000000000000000000000000000000602082015250565b6000614ec160218361445f565b9150614ecc82614e65565b604082019050919050565b60006020820190508181036000830152614ef081614eb4565b9050919050565b7f4552433732313a20617070726f76652063616c6c6572206973206e6f74206f7760008201527f6e6572206e6f7220617070726f76656420666f7220616c6c0000000000000000602082015250565b6000614f5360388361445f565b9150614f5e82614ef7565b604082019050919050565b60006020820190508181036000830152614f8281614f46565b9050919050565b600081905092915050565b6000614f9f82614454565b614fa98185614f89565b9350614fb9818560208601614470565b80840191505092915050565b6000614fd18284614f94565b915081905092915050565b7f54686973204e465420697320616c7265616479206d696e746564210000000000600082015250565b6000615012601b8361445f565b915061501d82614fdc565b602082019050919050565b6000602082019050818103600083015261504181615005565b9050919050565b7f53616c657320617265206e6f7420616c6c6f7765642100000000000000000000600082015250565b600061507e60168361445f565b915061508982615048565b602082019050919050565b600060208201905081810360008301526150ad81615071565b9050919050565b7f4e487b7100000000000000000000000000000000000000000000000000000000600052601160045260246000fd5b60006150ee82614420565b91507fffffffffffffffffffffffffffffffffffffffffffffffffffffffffffffffff821415615121576151206150b4565b5b600182019050919050565b6000608082019050615141600083018761442a565b61514e602083018661442a565b818103604083015261516081856144b4565b905061516f606083018461442a565b95945050505050565b7f4552433732313a207472616e736665722063616c6c6572206973206e6f74206f60008201527f776e6572206e6f7220617070726f766564000000000000000000000000000000602082015250565b60006151d460318361445f565b91506151df82615178565b604082019050919050565b60006020820190508181036000830152615203816151c7565b9050919050565b600061521582614420565b915061522083614420565b925082821015615233576152326150b4565b5b828203905092915050565b7f4e487b7100000000000000000000000000000000000000000000000000000000600052603260045260246000fd5b7f54686520746f6b656e496420646f65736e277420657869737400000000000000600082015250565b60006152a360198361445f565b91506152ae8261526d565b602082019050919050565b600060208201905081810360008301526152d281615296565b9050919050565b7f455243373231456e756d657261626c653a206f776e657220696e646578206f7560008201527f74206f6620626f756e6473000000000000000000000000000000000000000000602082015250565b6000615335602b8361445f565b9150615340826152d9565b604082019050919050565b6000602082019050818103600083015261536481615328565b9050919050565b7f455243373231456e756d657261626c653a20676c6f62616c20696e646578206f60008201527f7574206f6620626f756e64730000000000000000000000000000000000000000602082015250565b60006153c7602c8361445f565b91506153d28261536b565b604082019050919050565b600060208201905081810360008301526153f6816153ba565b9050919050565b7f4552433732313a206f776e657220717565727920666f72206e6f6e657869737460008201527f656e7420746f6b656e0000000000000000000000000000000000000000000000602082015250565b600061545960298361445f565b9150615464826153fd565b604082019050919050565b600060208201905081810360008301526154888161544c565b9050919050565b7f4552433732313a2062616c616e636520717565727920666f7220746865207a6560008201527f726f206164647265737300000000000000000000000000000000000000000000602082015250565b60006154eb602a8361445f565b91506154f68261548f565b604082019050919050565b6000602082019050818103600083015261551a816154de565b9050919050565b7f54686520746f6b656e206973206275726e656421000000000000000000000000600082015250565b600061555760148361445f565b915061556282615521565b602082019050919050565b600060208201905081810360008301526155868161554a565b9050919050565b7f457468657220746f6f206c6f7720666f72207075726368617365210000000000600082015250565b60006155c3601b8361445f565b91506155ce8261558d565b602082019050919050565b600060208201905081810360008301526155f2816155b6565b9050919050565b7f4f7065726174696f6e206973206e6f7420616c6c6f7765642100000000000000600082015250565b600061562f60198361445f565b915061563a826155f9565b602082019050919050565b6000602082019050818103600083015261565e81615622565b9050919050565b600061567082614420565b915061567b83614420565b9250817fffffffffffffffffffffffffffffffffffffffffffffffffffffffffffffffff04831182151516156156b4576156b36150b4565b5b828202905092915050565b7f4e487b7100000000000000000000000000000000000000000000000000000000600052601260045260246000fd5b60006156f982614420565b915061570483614420565b925082615714576157136156bf565b5b828204905092915050565b60008190508160005260206000209050919050565b6000815461574181614da1565b61574b818661445f565b945060018216600081146157665760018114615778576157ab565b60ff19831686526020860193506157ab565b6157818561571f565b60005b838110156157a357815481890152600182019150602081019050615784565b808801955050505b50505092915050565b60006080820190506157c9600083018761442a565b6157d6602083018661442a565b81810360408301526157e88185615734565b90506157f7606083018461442a565b95945050505050565b7f457468657220746f6f206c6f7721000000000000000000000000000000000000600082015250565b6000615836600e8361445f565b915061584182615800565b602082019050919050565b6000602082019050818103600083015261586581615829565b9050919050565b7f4552433732314d657461646174613a2055524920717565727920666f72206e6f60008201527f6e6578697374656e7420746f6b656e0000000000000000000000000000000000602082015250565b60006158c8602f8361445f565b91506158d38261586c565b604082019050919050565b600060208201905081810360008301526158f7816158bb565b9050919050565b600061590a8285614f94565b91506159168284614f94565b91508190509392505050565b7f4f776e61626c653a206e6577206f776e657220697320746865207a65726f206160008201527f6464726573730000000000000000000000000000000000000000000000000000602082015250565b600061597e60268361445f565b915061598982615922565b604082019050919050565b600060208201905081810360008301526159ad81615971565b9050919050565b7f4552433732313a206f70657261746f7220717565727920666f72206e6f6e657860008201527f697374656e7420746f6b656e0000000000000000000000000000000000000000602082015250565b6000615a10602c8361445f565b9150615a1b826159b4565b604082019050919050565b60006020820190508181036000830152615a3f81615a03565b9050919050565b7f4552433732313a207472616e73666572206f6620746f6b656e2074686174206960008201527f73206e6f74206f776e0000000000000000000000000000000000000000000000602082015250565b6000615aa260298361445f565b9150615aad82615a46565b604082019050919050565b60006020820190508181036000830152615ad181615a95565b9050919050565b7f4552433732313a207472616e7366657220746f20746865207a65726f2061646460008201527f7265737300000000000000000000000000000000000000000000000000000000602082015250565b6000615b3460248361445f565b9150615b3f82615ad8565b604082019050919050565b60006020820190508181036000830152615b6381615b27565b9050919050565b6000615b7582614420565b9150615b8083614420565b9250827fffffffffffffffffffffffffffffffffffffffffffffffffffffffffffffffff03821115615bb557615bb46150b4565b5b828201905092915050565b7f4f776e61626c653a2063616c6c6572206973206e6f7420746865206f776e6572600082015250565b6000615bf660208361445f565b9150615c0182615bc0565b602082019050919050565b60006020820190508181036000830152615c2581615be9565b9050919050565b600081905092915050565b50565b6000615c47600083615c2c565b9150615c5282615c37565b600082019050919050565b6000615c6882615c3a565b9150819050919050565b7f4552433732313a20617070726f766520746f2063616c6c657200000000000000600082015250565b6000615ca860198361445f565b9150615cb382615c72565b602082019050919050565b60006020820190508181036000830152615cd781615c9b565b9050919050565b7f4552433732313a207472616e7366657220746f206e6f6e20455243373231526560008201527f63656976657220696d706c656d656e7465720000000000000000000000000000602082015250565b6000615d3a60328361445f565b9150615d4582615cde565b604082019050919050565b60006020820190508181036000830152615d6981615d2d565b9050919050565b600081519050919050565b600082825260208201905092915050565b6000615d9782615d70565b615da18185615d7b565b9350615db1818560208601614470565b615dba816144a3565b840191505092915050565b6000608082019050615dda600083018761459a565b615de7602083018661459a565b615df4604083018561442a565b8181036060830152615e068184615d8c565b905095945050505050565b600081519050615e2081614391565b92915050565b600060208284031215615e3c57615e3b61435b565b5b6000615e4a84828501615e11565b91505092915050565b7f4552433732313a206d696e7420746f20746865207a65726f2061646472657373600082015250565b6000615e8960208361445f565b9150615e9482615e53565b602082019050919050565b60006020820190508181036000830152615eb881615e7c565b9050919050565b7f4552433732313a20746f6b656e20616c7265616479206d696e74656400000000600082015250565b6000615ef5601c8361445f565b9150615f0082615ebf565b602082019050919050565b60006020820190508181036000830152615f2481615ee8565b9050919050565b7f4e487b7100000000000000000000000000000000000000000000000000000000600052603160045260246000fdfea264697066735822122003218675338a57c2dcf3d168b8779afd99fcc2c094d388b5379b422dd18f677f64736f6c634300080b0033",
  "immutableReferences": {},
  "source": "// SPDX-License-Identifier: MIT\npragma solidity >=0.7.0 <0.9.0;\n\nimport \"./ERC721.sol\";\nimport \"./ERC721Enumerable.sol\";\nimport \"@openzeppelin/contracts/access/Ownable.sol\";\n\ncontract SandPool is ERC721Enumerable, Ownable {\n    using Strings for uint256;\n    mapping(string => uint8) existingURIs;\n    mapping(uint256 => address) public holderOf;\n\n    address public marketOwner;\n    uint256 public marketFee;\n    uint256 public supply = 0;\n    uint256 public totalTx = 0;\n\n    event Sale(\n        uint256 tokenId,\n        address indexed owner,\n        uint256 cost,\n        string metadataURI,\n        uint256 timestamp\n    );\n\n    struct TransactionStruct {\n        uint256 tokenId;\n        address owner;\n        uint256 cost;\n        string title;\n        string description;\n        string metadataURI;\n        uint256 timestamp;\n    }\n\n    TransactionStruct[] transactions;\n    TransactionStruct[] minted;\n    TransactionStruct[] NFTsRecord;\n\n    constructor(\n        string memory _name,\n        string memory _symbol,\n        uint256 _marketFee\n    ) ERC721(_name, _symbol) {\n        marketFee = _marketFee;\n        marketOwner = msg.sender;\n    }\n\n    function payToMint(\n        string memory title,\n        uint256 salesPrice,\n        string memory description,\n        string memory metadataURI\n    ) external {\n        require(existingURIs[metadataURI] == 0, \"This NFT is already minted!\");\n        require(msg.sender != owner(), \"Sales are not allowed!\");\n\n        supply++;\n\n        minted.push(\n            TransactionStruct(\n                supply,\n                msg.sender,\n                salesPrice,\n                title,\n                description,\n                metadataURI,\n                block.timestamp\n            )\n        );\n\n        NFTsRecord.push(\n            TransactionStruct(\n                supply,\n                msg.sender,\n                salesPrice,\n                title,\n                description,\n                metadataURI,\n                block.timestamp\n            )\n        );\n\n        emit Sale(supply, msg.sender, salesPrice, metadataURI, block.timestamp);\n\n        _safeMint(msg.sender, supply);\n        existingURIs[metadataURI] = 1;\n        holderOf[supply] = msg.sender;\n    }\n\n    function payToBuy(uint256 tokenId) external payable {\n        require(\n            minted[tokenId - 1].owner != address(0),\n            \"The token is burned!\"\n        );\n        require(\n            msg.value >= minted[tokenId - 1].cost,\n            \"Ether too low for purchase!\"\n        );\n        require(\n            msg.sender != minted[tokenId - 1].owner,\n            \"Operation is not allowed!\"\n        );\n\n        uint256 royality = (msg.value * marketFee) / 100;\n        payTo(marketOwner, royality);\n        payTo(minted[tokenId - 1].owner, (msg.value - royality));\n\n        totalTx++;\n\n        transactions.push(\n            TransactionStruct(\n                tokenId,\n                msg.sender,\n                msg.value,\n                minted[tokenId - 1].title,\n                minted[tokenId - 1].description,\n                minted[tokenId - 1].metadataURI,\n                block.timestamp\n            )\n        );\n\n        NFTsRecord[tokenId - 1].owner = msg.sender;\n        NFTsRecord[tokenId - 1].timestamp = block.timestamp;\n\n        emit Sale(\n            tokenId,\n            msg.sender,\n            msg.value,\n            minted[tokenId - 1].metadataURI,\n            block.timestamp\n        );\n\n        minted[tokenId - 1].owner = msg.sender;\n    }\n\n    function changePrice(\n        uint256 tokenId,\n        uint256 newPrice\n    ) external returns (bool) {\n        require(newPrice > 0 ether, \"Ether too low!\");\n        require(\n            msg.sender == minted[tokenId - 1].owner,\n            \"Operation is not allowed!\"\n        );\n\n        minted[tokenId - 1].cost = newPrice;\n        NFTsRecord[tokenId - 1].cost = newPrice;\n        return true;\n    }\n\n    function payTo(address to, uint256 amount) internal {\n        (bool success, ) = payable(to).call{value: amount}(\"\");\n        require(success);\n    }\n\n    function changeMarketFee(uint256 _marketFee) external onlyOwner {\n        marketFee = _marketFee;\n    }\n\n    function burnNFT(uint256 tokenId) external onlyOwner {\n        _burn(tokenId);\n        delete minted[tokenId - 1];\n        holderOf[tokenId] = address(0);\n        require(\n            minted[tokenId - 1].owner == address(0),\n            \"The tokenId doesn't exist\"\n        );\n    }\n\n    function reListBurnedNFT(uint256 tokenId) external onlyOwner {\n        for (uint i = 0; i < NFTsRecord.length; i++) {\n            if (NFTsRecord[i].tokenId == tokenId) {\n                minted[tokenId - 1].tokenId = NFTsRecord[i].tokenId;\n                minted[tokenId - 1].owner = NFTsRecord[i].owner;\n                minted[tokenId - 1].cost = NFTsRecord[i].cost;\n                minted[tokenId - 1].title = NFTsRecord[i].title;\n                minted[tokenId - 1].description = NFTsRecord[i].description;\n                minted[tokenId - 1].metadataURI = NFTsRecord[i].metadataURI;\n                minted[tokenId - 1].timestamp = NFTsRecord[i].timestamp;\n                holderOf[tokenId] = NFTsRecord[i].owner;\n                _safeMint(NFTsRecord[i].owner, NFTsRecord[i].tokenId);\n                return;\n            }\n        }\n        revert(\"The tokenId doesn't exist\");\n    }\n\n    function getMarketFee() public view returns (uint256) {\n        return marketFee;\n    }\n\n    function getAllNFTs() external view returns (TransactionStruct[] memory) {\n        return minted;\n    }\n\n    function getNFT(\n        uint256 tokenId\n    ) external view returns (TransactionStruct memory) {\n        return minted[tokenId - 1];\n    }\n\n    function getAllTransactions()\n        external\n        view\n        returns (TransactionStruct[] memory)\n    {\n        return transactions;\n    }\n}\n",
  "sourcePath": "/home/abodymo/graduation-project/FINAL_PROJECT/SandPool/src/contracts/SandPool.sol",
  "compiler": {
    "name": "solc",
    "version": "0.8.11+commit.d7f03943.Emscripten.clang"
  },
  "schemaVersion": "3.4.11",
  "updatedAt": "2023-03-07T15:43:55.339Z",
  "networkType": "ethereum",
  "devdoc": {
    "kind": "dev",
    "methods": {
      "approve(address,uint256)": {
        "details": "See {IERC721-approve}."
      },
      "balanceOf(address)": {
        "details": "See {IERC721-balanceOf}."
      },
      "getApproved(uint256)": {
        "details": "See {IERC721-getApproved}."
      },
      "isApprovedForAll(address,address)": {
        "details": "See {IERC721-isApprovedForAll}."
      },
      "name()": {
        "details": "See {IERC721Metadata-name}."
      },
      "owner()": {
        "details": "Returns the address of the current owner."
      },
      "ownerOf(uint256)": {
        "details": "See {IERC721-ownerOf}."
      },
      "renounceOwnership()": {
        "details": "Leaves the contract without owner. It will not be possible to call `onlyOwner` functions anymore. Can only be called by the current owner. NOTE: Renouncing ownership will leave the contract without an owner, thereby removing any functionality that is only available to the owner."
      },
      "safeTransferFrom(address,address,uint256)": {
        "details": "See {IERC721-safeTransferFrom}."
      },
      "safeTransferFrom(address,address,uint256,bytes)": {
        "details": "See {IERC721-safeTransferFrom}."
      },
      "setApprovalForAll(address,bool)": {
        "details": "See {IERC721-setApprovalForAll}."
      },
      "supportsInterface(bytes4)": {
        "details": "See {IERC165-supportsInterface}."
      },
      "symbol()": {
        "details": "See {IERC721Metadata-symbol}."
      },
      "tokenByIndex(uint256)": {
        "details": "See {IERC721Enumerable-tokenByIndex}."
      },
      "tokenOfOwnerByIndex(address,uint256)": {
        "details": "See {IERC721Enumerable-tokenOfOwnerByIndex}."
      },
      "tokenURI(uint256)": {
        "details": "See {IERC721Metadata-tokenURI}."
      },
      "totalSupply()": {
        "details": "See {IERC721Enumerable-totalSupply}."
      },
      "transferFrom(address,address,uint256)": {
        "details": "See {IERC721-transferFrom}."
      },
      "transferOwnership(address)": {
        "details": "Transfers ownership of the contract to a new account (`newOwner`). Can only be called by the current owner."
      }
    },
    "version": 1
  },
  "userdoc": {
    "kind": "user",
    "methods": {},
    "version": 1
  }
}